:020000040000FA
:060000000A128A11F82F1C
:10087E0083120313061486100615861108008312C0
:10088E0003130610861006118611080070088312D5
:10089E000313950072089B000800831203130610C1
:1008AE00861406158611080083120313061486108B
:1008BE0006118615080083120313061086140611FE
:1008CE00861508000A128A11A9240A128A118316A3
:1008DE000313111408000A128A11A9240A128A118C
:1008EE0083160313111508000A128A11A9240A127D
:1008FE008A118316031391140800831603139112A1
:10090E000A128A11A9240A128A11831603131116C8
:10091E0008008316031391160A128A11A9240A12CB
:10092E008A1183160313111608002830831203133D
:10093E0094008316031391019401313093008715AF
:10094E0007160800831603131419AE2CAF2CA92C0E
:10095E0011081F39031DB42CB52CA92C0800F0006A
:10096E000A128A11A9240A128A117008831203131B
:10097E0093008C1DC32CC42CC02C8C1108000A12A1
:10098E008A11A9240A128A11831603139115831250
:10099E008C1DD22CD32CCE2C8C110A128A11A92488
:1009AE000A128A1183120313130808005030F00044
:1009BE000030F1005030F2000030F3000A128A11BC
:1009CE004D240A128A110A128A113F240A128A1120
:1009DE000330F6008A30F5005530F400F40BF52C98
:1009EE00F50BF52CF60BF52CFC2C080083160313D7
:1009FE008601FF308800831203138601FF308316B1
:100A0E000313920007308312031392000C309700E9
:100A1E007F3095008316031307110C3083120313D6
:100A2E009D007F309B0083160313871083120313E0
:100A3E00121508000A128A1169240A128A115230FC
:100A4E000A128A11B6240A128A1180300A128A11E9
:100A5E00B6240A128A1103300A128A11B6240A1217
:100A6E008A110A128A1172240A128A110A128A1122
:100A7E0069240A128A1152300A128A11B6240A12F5
:100A8E008A1181300A128A11B6240A128A11D530BF
:100A9E000A128A11B6240A128A110A128A117224B3
:100AAE000A128A110A128A1169240A128A11523004
:100ABE000A128A11B6240A128A118F300A128A116A
:100ACE00B6240A128A1100300A128A11B6240A12AA
:100ADE008A110A128A1172240A128A110800003031
:100AEE008312031388180130F70000300819013003
:100AFE00F800003008180130F9007703031D882D27
:100B0E00892DBB2D7803031D8D2D8E2DBB2D7903C5
:100B1E00031D922D932DBB2D2D30F0000030F100D2
:100B2E002D30F2000030F3000A128A114D240A1201
:100B3E008A110A128A113F240A128A110130831275
:100B4E000313AA070318AB0A0030AB071430F600E4
:100B5E000730F5001130F400F40BB32DF50BB32D67
:100B6E00F60BB32DBA2D102E2B08803AFF008030D5
:100B7E007F02031DC42D05302A02031CC72DC82D6C
:100B8E00CE2D0A128A1146240A128A11102E7803CB
:100B9E00031DD22DD32DE62D6430F0000030F10070
:100BAE005A30F2000030F3000A128A114D240A1254
:100BBE008A110A128A1154240A128A11102E7903EC
:100BCE00031DEA2DEB2DFE2D6430F0000030F100F8
:100BDE005A30F2000030F3000A128A114D240A1224
:100BEE008A110A128A115B240A128A11102E3230CF
:100BFE00F0000030F1003230F2000030F3000A1243
:100C0E008A114D240A128A110A128A113F240A12DD
:100C1E008A110800F3000A128A1169240A128A1135
:100C2E0052300A128A11B6240A128A11B6300A12EA
:100C3E008A11B6240A128A110A128A117B240A1208
:100C4E008A1153300A128A11B6240A128A110A1214
:100C5E008A11C6240A128A11F4000A128A118424F7
:100C6E000A128A110A128A11C6240A128A11F50072
:100C7E000A128A1190240A128A110A128A117224F7
:100C8E000A128A1173088400740883138000840A80
:100C9E00750880000A128A1169240A128A115230CC
:100CAE000A128A11B6240A128A11B8300A128A114F
:100CBE00B6240A128A110A128A117B240A128A1188
:100CCE0053300A128A11B6240A128A110A128A1194
:100CDE00C6240A128A11F4000A128A1184240A12F6
:100CEE008A110A128A11C6240A128A11F5000A12F2
:100CFE008A1190240A128A110A128A1172240A1277
:100D0E008A1171088400740883138000840A7508A0
:100D1E0080000A128A1169240A128A1152300A12AC
:100D2E008A11B6240A128A11BA300A128A11B6240E
:100D3E000A128A110A128A117B240A128A1153305E
:100D4E000A128A11B6240A128A110A128A11C624AC
:100D5E000A128A11F4000A128A1184240A128A11C4
:100D6E000A128A11C6240A128A11F5000A128A1171
:100D7E0090240A128A110A128A1172240A128A11F6
:100D8E0072088400740883138000840A750880003A
:100D9E0008000A128A11FD240A128A118312031303
:100DAE00A201A3010A128A119C240A128A110A12A4
:100DBE008A1121250A128A11FF3083120313A6000D
:100DCE000030A700A401A501A801A90183120313F5
:100DDE008819F22EF32E282F0A128A1146240A128F
:100DEE008A1183120313A001A101172F2630F100DF
:100DFE002830F20024300A128A1111260A128A11A2
:100E0E00C330FB00CD30FA00FA0B0B2FFB0B0B2F70
:100E1E00013083120313A0070318A10A0030A107A3
:100E2E002108803AFF0080307F02031D202F0530FD
:100E3E002002031C232F242FFD2E83120313A20145
:100E4E00A30125082702031D2E2F240826020318AE
:100E5E00312F322F422F25082902031D382F240847
:100E6E00280203183B2F3C2F422F0A128A114624C8
:100E7E000A128A11EB2F27082502031D482F260878
:100E8E00240203184B2F4C2F6D2F27082902031D08
:100E9E00522F260828020318552F562F6D2F220881
:100EAE002304031D5B2F5C2F672F0A128A11DD248A
:100EBE000A128A11013083120313A2000030A3001C
:100ECE000A128A1176250A128A11EB2F2908250299
:100EDE00031D732F280824020318762F772FD92F7E
:100EEE0029082702031D7D2F280826020318802FAC
:100EFE00812FD92F22082304031D862F872FAA2F77
:100F0E000130A2000030A3005030F0000030F1009C
:100F1E005030F2000030F3000A128A114D240A12EA
:100F2E008A110A128A1162240A128A110330FC00F5
:100F3E008A30FB005530FA00FA0BA32FFB0BA32FC0
:100F4E00FC0BA32FAA2F2D30F0000030F1002D3016
:100F5E00F2000030F3000A128A114D240A128A118F
:100F6E000A128A1162240A128A112730FC000D30EF
:100F7E00FB002630FA00FA0BC22FFB0BC22FFC0B24
:100F8E00C22F00000A128A11DD240A128A11C830FB
:100F9E0083120313A6000030A700A801A901A40123
:100FAE00A501EB2F3230F0000030F1003230F200AC
:100FBE000030F3000A128A114D240A128A110A1205
:100FCE008A113F240A128A118230FB00DD30FA00AA
:100FDE00FA0BEF2FFB0BEF2FF42FED2E0A128A11C7
:100FEE00002883120313AA01AB0183010A128A118E
:020FFE00D02EF3
:02400E007A3FF7
:00000001FF
